{
  "_format": "hh-sol-artifact-1",
  "contractName": "whitelist",
  "sourceName": "contracts/whitelist.sol",
  "abi": [
    {
      "inputs": [
        {
          "internalType": "uint8",
          "name": "_maxWLAddrs",
          "type": "uint8"
        }
      ],
      "stateMutability": "nonpayable",
      "type": "constructor"
    },
    {
      "inputs": [],
      "name": "AlreadyInitialized",
      "type": "error"
    },
    {
      "inputs": [],
      "name": "AuthenticationError",
      "type": "error"
    },
    {
      "inputs": [],
      "name": "MaxWhitelisted",
      "type": "error"
    },
    {
      "inputs": [],
      "name": "NotInitialized",
      "type": "error"
    },
    {
      "inputs": [
        {
          "internalType": "address",
          "name": "_who",
          "type": "address"
        }
      ],
      "name": "addToWhitelist",
      "outputs": [],
      "stateMutability": "nonpayable",
      "type": "function"
    },
    {
      "inputs": [],
      "name": "getMaxWhitelistable",
      "outputs": [
        {
          "internalType": "uint8",
          "name": "",
          "type": "uint8"
        }
      ],
      "stateMutability": "view",
      "type": "function"
    },
    {
      "inputs": [],
      "name": "getTotalWhitelisted",
      "outputs": [
        {
          "internalType": "uint8",
          "name": "",
          "type": "uint8"
        }
      ],
      "stateMutability": "view",
      "type": "function"
    },
    {
      "inputs": [
        {
          "internalType": "address",
          "name": "_who",
          "type": "address"
        }
      ],
      "name": "isWhitelisted",
      "outputs": [
        {
          "internalType": "bool",
          "name": "",
          "type": "bool"
        }
      ],
      "stateMutability": "view",
      "type": "function"
    },
    {
      "inputs": [],
      "name": "maxWLAddrs",
      "outputs": [
        {
          "internalType": "uint8",
          "name": "",
          "type": "uint8"
        }
      ],
      "stateMutability": "view",
      "type": "function"
    },
    {
      "inputs": [],
      "name": "numAddressesWhitelisted",
      "outputs": [
        {
          "internalType": "uint8",
          "name": "",
          "type": "uint8"
        }
      ],
      "stateMutability": "view",
      "type": "function"
    },
    {
      "inputs": [
        {
          "internalType": "address",
          "name": "_who",
          "type": "address"
        }
      ],
      "name": "removeFromWhitelist",
      "outputs": [],
      "stateMutability": "nonpayable",
      "type": "function"
    },
    {
      "inputs": [
        {
          "internalType": "address",
          "name": "_who",
          "type": "address"
        }
      ],
      "name": "removeFromWhitelistOP",
      "outputs": [],
      "stateMutability": "nonpayable",
      "type": "function"
    },
    {
      "inputs": [
        {
          "internalType": "address",
          "name": "",
          "type": "address"
        }
      ],
      "name": "wlAddrs",
      "outputs": [
        {
          "internalType": "bool",
          "name": "",
          "type": "bool"
        }
      ],
      "stateMutability": "view",
      "type": "function"
    }
  ],
  "bytecode": "0x608060405234801561001057600080fd5b506040516109eb3803806109eb833981810160405281019061003291906100d1565b806000806101000a81548160ff021916908360ff16021790555033600060026101000a81548173ffffffffffffffffffffffffffffffffffffffff021916908373ffffffffffffffffffffffffffffffffffffffff160217905550506100fe565b600080fd5b600060ff82169050919050565b6100ae81610098565b81146100b957600080fd5b50565b6000815190506100cb816100a5565b92915050565b6000602082840312156100e7576100e6610093565b5b60006100f5848285016100bc565b91505092915050565b6108de8061010d6000396000f3fe608060405234801561001057600080fd5b50600436106100935760003560e01c80636e656d40116100665780636e656d40146101205780638ab1d6811461013e5780638f16e77e1461015a578063e43252d71461018a578063f692852a146101a657610093565b80630a766b91146100985780633af32abf146100b65780634011d7cd146100e657806368a0664a14610104575b600080fd5b6100a06101c4565b6040516100ad919061072d565b60405180910390f35b6100d060048036038101906100cb91906107ab565b6101da565b6040516100dd91906107f3565b60405180910390f35b6100ee6102b3565b6040516100fb919061072d565b60405180910390f35b61011e600480360381019061011991906107ab565b6102c6565b005b6101286103df565b604051610135919061072d565b60405180910390f35b610158600480360381019061015391906107ab565b6103f5565b005b610174600480360381019061016f91906107ab565b61056f565b60405161018191906107f3565b60405180910390f35b6101a4600480360381019061019f91906107ab565b61058f565b005b6101ae610700565b6040516101bb919061072d565b60405180910390f35b60008060009054906101000a900460ff16905090565b6000600160008373ffffffffffffffffffffffffffffffffffffffff1673ffffffffffffffffffffffffffffffffffffffff16815260200190815260200160002060009054906101000a900460ff1661025f576040517f87138d5c00000000000000000000000000000000000000000000000000000000815260040160405180910390fd5b600160008373ffffffffffffffffffffffffffffffffffffffff1673ffffffffffffffffffffffffffffffffffffffff16815260200190815260200160002060009054906101000a900460ff169050919050565b600060019054906101000a900460ff1681565b600060029054906101000a900473ffffffffffffffffffffffffffffffffffffffff1673ffffffffffffffffffffffffffffffffffffffff163373ffffffffffffffffffffffffffffffffffffffff161461034d576040517fd14518c600000000000000000000000000000000000000000000000000000000815260040160405180910390fd5b6000600160008373ffffffffffffffffffffffffffffffffffffffff1673ffffffffffffffffffffffffffffffffffffffff16815260200190815260200160002060006101000a81548160ff0219169083151502179055506001600060018282829054906101000a900460ff166103c4919061083d565b92506101000a81548160ff021916908360ff16021790555050565b60008060019054906101000a900460ff16905090565b600160008273ffffffffffffffffffffffffffffffffffffffff1673ffffffffffffffffffffffffffffffffffffffff16815260200190815260200160002060009054906101000a900460ff16610478576040517f87138d5c00000000000000000000000000000000000000000000000000000000815260040160405180910390fd5b8073ffffffffffffffffffffffffffffffffffffffff163373ffffffffffffffffffffffffffffffffffffffff16146104dd576040517fd14518c600000000000000000000000000000000000000000000000000000000815260040160405180910390fd5b6000600160008373ffffffffffffffffffffffffffffffffffffffff1673ffffffffffffffffffffffffffffffffffffffff16815260200190815260200160002060006101000a81548160ff0219169083151502179055506001600060018282829054906101000a900460ff16610554919061083d565b92506101000a81548160ff021916908360ff16021790555050565b60016020528060005260406000206000915054906101000a900460ff1681565b600160008273ffffffffffffffffffffffffffffffffffffffff1673ffffffffffffffffffffffffffffffffffffffff16815260200190815260200160002060009054906101000a900460ff1615610613576040517f0dc149f000000000000000000000000000000000000000000000000000000000815260040160405180910390fd5b60008054906101000a900460ff1660ff16600060019054906101000a900460ff1660ff16141561066f576040517f474d4d5900000000000000000000000000000000000000000000000000000000815260040160405180910390fd5b60018060008373ffffffffffffffffffffffffffffffffffffffff1673ffffffffffffffffffffffffffffffffffffffff16815260200190815260200160002060006101000a81548160ff0219169083151502179055506001600060018282829054906101000a900460ff166106e59190610871565b92506101000a81548160ff021916908360ff16021790555050565b60008054906101000a900460ff1681565b600060ff82169050919050565b61072781610711565b82525050565b6000602082019050610742600083018461071e565b92915050565b600080fd5b600073ffffffffffffffffffffffffffffffffffffffff82169050919050565b60006107788261074d565b9050919050565b6107888161076d565b811461079357600080fd5b50565b6000813590506107a58161077f565b92915050565b6000602082840312156107c1576107c0610748565b5b60006107cf84828501610796565b91505092915050565b60008115159050919050565b6107ed816107d8565b82525050565b600060208201905061080860008301846107e4565b92915050565b7f4e487b7100000000000000000000000000000000000000000000000000000000600052601160045260246000fd5b600061084882610711565b915061085383610711565b9250828210156108665761086561080e565b5b828203905092915050565b600061087c82610711565b915061088783610711565b92508260ff0382111561089d5761089c61080e565b5b82820190509291505056fea2646970667358221220b05ba1550bd285e9bde79b66fa78e7b51ea22873150a80af4927e0a4de08860f64736f6c63430008090033",
  "linkReferences": {},
  "deployedLinkReferences": {}
}